:020000040000FA
:1000000068020020230300002B0300002D030000E2
:100010002F03000031030000330300000000000044
:100020000000000000000000000000003503000098
:100030003703000000000000390300003B0300000C
:100040003D0300003F0300004103000043030000A4
:100050004503000047030000490300004B03000074
:100060004D0300004F030000510300005303000044
:100070005503000057030000590300005B03000014
:100080005D0300005F0300006103000063030000E4
:100090006503000067030000690300006B030000B4
:1000A0006D0300006F030000710300007303000084
:1000B00075030000770300000F0500007B030000BC
:1000C0007D0300007F030000810300008303000024
:1000D0008503000087030000890300008B030000F4
:1000E0008D0300008F03000000000000910300005A
:1000F000930300009503000097030000990300009C
:100100009B0300009D0300009F030000A10300006B
:100110000000000000000000A3030000A503000091
:10012000A7030000A9030000AB030000AD0300001B
:10013000AF030000B1030000B3030000B5030000EB
:1001400000000000000000000000000000000000AF
:10015000B7030000B9030000BB030000BD030000AB
:10016000000000000000000000000000000000008F
:10017000000000000000000000000000000000007F
:10018000000000000000000000000000000000006F
:10019000000000000000000000000000000000005F
:1001A000000000000000000000000000000000004F
:1001B000BF030000C1030000C3030000C50300002B
:1001C000C7030000C9030000CB030000CD030000FB
:1001D000CF030000D1030000D3030000D5030000CB
:1001E000D7030000D9030000DB030000000000007B
:1001F00000000000DD030000DF030000E103000059
:10020000E3030000E5030000000000000000000020
:10021000E7030000E9030000EB030000ED0300002A
:10022000EF030000F1030000F3030000F5030000FA
:10023000F7030000F9030000FB030000FD030000CA
:10024000FF03000001040000030400000504000097
:1002500007040000090400000B0400000D04000066
:100260000F040000110400001304000000F002F865
:1002700000F03CF80AA090E8000C82448344AAF104
:100280000107DA4501D100F031F8AFF2090EBAE802
:100290000F0013F0010F18BFFB1A43F001031847BA
:1002A00080030000A0030000103A24BF78C878C182
:1002B000FAD8520724BF30C830C144BF04680C606C
:1002C000704700000023002400250026103A28BFB4
:1002D00078C1FBD8520728BF30C148BF0B607047B8
:1002E0001FB500F098F91FBD10B510BD00F05DF905
:1002F0001146FFF7F5FF00F034F900F07BF903B485
:10030000FFF7F2FF03BC00F07FF9000072B6704700
:1003100062B670474FF0C00080F31188704730BF5D
:1003200070473F4880473F480047FEE7FEE7FEE74B
:10033000FEE7FEE7FEE7FEE7FEE7FEE7FEE7FEE795
:10034000FEE7FEE7FEE7FEE7FEE7FEE7FEE7FEE785
:10035000FEE7FEE7FEE7FEE7FEE7FEE7FEE7FEE775
:10036000FEE7FEE7FEE7FEE7FEE7FEE7FEE7FEE765
:10037000FEE7FEE7FEE7FEE7FEE7FEE7FEE7FEE755
:10038000FEE7FEE7FEE7FEE7FEE7FEE7FEE7FEE745
:10039000FEE7FEE7FEE7FEE7FEE7FEE7FEE7FEE735
:1003A000FEE7FEE7FEE7FEE7FEE7FEE7FEE7FEE725
:1003B000FEE7FEE7FEE7FEE7FEE7FEE7FEE7FEE715
:1003C000FEE7FEE7FEE7FEE7FEE7FEE7FEE7FEE705
:1003D000FEE7FEE7FEE7FEE7FEE7FEE7FEE7FEE7F5
:1003E000FEE7FEE7FEE7FEE7FEE7FEE7FEE7FEE7E5
:1003F000FEE7FEE7FEE7FEE7FEE7FEE7FEE7FEE7D5
:10040000FEE7FEE7FEE7FEE7FEE7FEE7FEE7FEE7C4
:10041000FEE7FEE704480549034A054B7047000024
:10042000350400006D020000680000206802002012
:10043000680000204E48006840F470004C49086095
:10044000704708B54B48006840F0200049490860F3
:100450000846006800904848006840F01E00464981
:1004600008604648006820F01000444908600846CB
:10047000006840F00E0008603F480C38006840F00B
:1004800010003D490C390860FFF740FF3B48103031
:10049000006800203949103108603948006840F090
:1004A00080404FF0E021C1F800013648006840F478
:1004B0002000344908603448006820F010003249B8
:1004C000086001F10400006820F0100001F104014F
:1004D000086001F10400006820F0100001F104013F
:1004E00008604FF01000294908602948006840F072
:1004F000100027490860FFF70DFFFFF709FF08BD4F
:10050000002100BF00E0491C8142FCD3704700B5C8
:100510001E48006840F010001C4908601D48006833
:10052000032803D301201B49086004E01948006830
:10053000401C18490860002310E01748006815495E
:100540000A684FF0010101FA02F180EA0100134943
:10055000C1F8FC031248FFF7D3FF5B1C022BECDB56
:1005600000BDFFF76EFF01E0FFF7D9FEFCE70000DA
:1005700088ED00E008E60F401C55024000540240A0
:1005800000E100E01CE400E0045402401C5402407E
:100590001054024000000020FC5302400050024072
:1005A00080969800704770477047754600F028F8AD
:1005B000AE4605006946534620F00700854618B050
:1005C00020B5FFF727FFBDE820404FF000064FF0B1
:1005D00000074FF000084FF0000B21F00701AC4678
:1005E000ACE8C009ACE8C009ACE8C009ACE8C00997
:1005F0008D4670470446AFF300802046FFF77FFE2C
:10060000004870470400002001491820ABBEFEE7F7
:100610002600020070474FF04070E1EE100A70476C
:10062000400600000000002004000000A8020000B6
:10063000440600000400002064020000C402000020
:0406400000000000B6
:0400000500000323D1
:00000001FF
