:020000040000FA
:1000000068020020230300002B0300002D030000E2
:100010002F03000031030000330300000000000044
:100020000000000000000000000000003503000098
:100030003703000000000000390300003B0300000C
:100040003D0300003F0300004103000043030000A4
:100050004503000047030000490300004B03000074
:100060004D0300004F030000510300005303000044
:100070005503000057030000590300005B03000014
:100080005D0300005F0300006103000063030000E4
:100090006503000067030000690300006B030000B4
:1000A0006D0300006F030000710300007303000084
:1000B0007503000077030000690500007B03000062
:1000C0007D0300007F030000810300008303000024
:1000D0008503000087030000890300008B030000F4
:1000E0008D0300008F03000000000000910300005A
:1000F000930300009503000097030000990300009C
:100100009B0300009D0300009F030000A10300006B
:100110000000000000000000A3030000A503000091
:10012000A7030000A9030000AB030000AD0300001B
:10013000AF030000B1030000B3030000B5030000EB
:1001400000000000000000000000000000000000AF
:10015000B7030000B9030000BB030000BD030000AB
:10016000000000000000000000000000000000008F
:10017000000000000000000000000000000000007F
:10018000000000000000000000000000000000006F
:10019000000000000000000000000000000000005F
:1001A000000000000000000000000000000000004F
:1001B000BF030000C1030000C3030000C50300002B
:1001C000C7030000C9030000CB030000CD030000FB
:1001D000CF030000D1030000D3030000D5030000CB
:1001E000D7030000D9030000DB030000000000007B
:1001F00000000000DD030000DF030000E103000059
:10020000E3030000E5030000000000000000000020
:10021000E7030000E9030000EB030000ED0300002A
:10022000EF030000F1030000F3030000F5030000FA
:10023000F7030000F9030000FB030000FD030000CA
:10024000FF03000001040000030400000504000097
:1002500007040000090400000B0400000D04000066
:100260000F040000110400001304000000F002F865
:1002700000F03CF80AA090E8000C82448344AAF104
:100280000107DA4501D100F031F8AFF2090EBAE802
:100290000F0013F0010F18BFFB1A43F001031847BA
:1002A000DC030000FC030000103A24BF78C878C1CA
:1002B000FAD8520724BF30C830C144BF04680C606C
:1002C000704700000023002400250026103A28BFB4
:1002D00078C1FBD8520728BF30C148BF0B607047B8
:1002E0001FB500F0C6F91FBD10B510BD00F08BF9A9
:1002F0001146FFF7F5FF00F061F900F0A9F903B42A
:10030000FFF7F2FF03BC00F0ADF9000072B67047D2
:1003100062B670474FF0C00080F31188704730BF5D
:1003200070473F4880473F480047FEE7FEE7FEE74B
:10033000FEE7FEE7FEE7FEE7FEE7FEE7FEE7FEE795
:10034000FEE7FEE7FEE7FEE7FEE7FEE7FEE7FEE785
:10035000FEE7FEE7FEE7FEE7FEE7FEE7FEE7FEE775
:10036000FEE7FEE7FEE7FEE7FEE7FEE7FEE7FEE765
:10037000FEE7FEE7FEE7FEE7FEE7FEE7FEE7FEE755
:10038000FEE7FEE7FEE7FEE7FEE7FEE7FEE7FEE745
:10039000FEE7FEE7FEE7FEE7FEE7FEE7FEE7FEE735
:1003A000FEE7FEE7FEE7FEE7FEE7FEE7FEE7FEE725
:1003B000FEE7FEE7FEE7FEE7FEE7FEE7FEE7FEE715
:1003C000FEE7FEE7FEE7FEE7FEE7FEE7FEE7FEE705
:1003D000FEE7FEE7FEE7FEE7FEE7FEE7FEE7FEE7F5
:1003E000FEE7FEE7FEE7FEE7FEE7FEE7FEE7FEE7E5
:1003F000FEE7FEE7FEE7FEE7FEE7FEE7FEE7FEE7D5
:10040000FEE7FEE7FEE7FEE7FEE7FEE7FEE7FEE7C4
:10041000FEE7FEE704480549034A054B7047000024
:10042000350400006D020000680000206802002012
:10043000680000206448006840F470006249086069
:10044000704708B56148006840F020005F490860C7
:100450000846006800905E485E490860081D006814
:1004600040F00100091D08605A48001F006840F074
:1004700002005849091F08605748006840F0020010
:10048000554908605348001F006840F00400514976
:10049000091F08605048006840F004004E49086099
:1004A0004C48001F006840F008004A49091F0860D6
:1004B0004948006840F00800474908604548001F67
:1004C000006840F001004349091F08604248006885
:1004D00060F00100404908603E481038006840F074
:1004E00001003C4910390860FFF710FF3A4810300E
:1004F00000680020384910310860880637490860D4
:100500003748006840F420003549086035480068E5
:1005100020F001003349086001F10400006820F078
:10052000010001F10401086001F10400006820F0FD
:10053000010001F1040108602B48006840F001004F
:10054000294908602948006840F0010027490860EF
:10055000FFF7E0FEFFF7DCFE08BD002100BF00E072
:10056000491C8142FCD3704700B51F48006840F029
:1005700001001D4908601E480068032803D30120BC
:100580001B49086004E01A480068401C18490860CC
:10059000002310E01748006815490A684FF0010170
:1005A00001FA02F180EA01001349C1F8FC03134883
:1005B000FFF7D3FF5B1C022BECDB00BDFFF741FF15
:1005C00001E0FFF7ACFEFCE788ED00E008E60F4035
:1005D0004B434F4C205502400054024000E100E0E4
:1005E0001CE400E0045402401C5402401054024039
:1005F00000000020FC5302400050024040420F0027
:10060000704770477047754600F028F8AE46050001
:100610006946534620F00700854618B020B5FFF71D
:10062000F9FEBDE820404FF000064FF000074FF004
:1006300000084FF0000B21F00701AC46ACE8C00900
:10064000ACE8C009ACE8C009ACE8C0098D46704709
:100650000446AFF300802046FFF751FE0048704784
:100660000400002001491820ABBEFEE7260002006E
:1006700070474FF04070E1EE100A70479C06000092
:100680000000002004000000A8020000A0060000F6
:100690000400002064020000C4020000000000000A
:0400000500000323D1
:00000001FF
