:020000040000FA
:100000007802002009030000110300001303000020
:100010001503000017030000190300000000000092
:100020000000000000000000000000001B030000B2
:100030001D030000000000001F030000210300005A
:10004000230300002503000027030000290300000C
:100050002B0300002D0300002F03000031030000DC
:1000600033030000350300003703000039030000AC
:100070003B0300003D0300003F030000410300007C
:10008000430300004503000047030000490300004C
:100090004B0300004D0300004F030000510300001C
:1000A00053030000550300005703000059030000EC
:1000B0005B0300005D0300005F03000061030000BC
:1000C000630300006503000067030000690300008C
:1000D0006B0300006D0300006F030000710300005C
:1000E00073030000750300000000000077030000A8
:1000F000790300007B0300007D0300007F03000004
:1001000081030000830300008503000087030000D3
:100110000000000000000000890300008B030000C5
:100120008D0300008F030000910300009303000083
:100130009503000097030000990300009B03000053
:1001400000000000000000000000000000000000AF
:100150009D0300009F030000A1030000A303000013
:10016000000000000000000000000000000000008F
:10017000000000000000000000000000000000007F
:10018000000000000000000000000000000000006F
:10019000000000000000000000000000000000005F
:1001A000000000000000000000000000000000004F
:1001B000A5030000A7030000A9030000AB03000093
:1001C000AD030000AF030000B1030000B303000063
:1001D000B5030000B7030000B9030000BB03000033
:1001E000BD030000BF030000C103000000000000C9
:1001F00000000000C3030000C5030000C7030000A7
:10020000C9030000CB030000000000000000000054
:10021000CD030000CF030000D1030000D303000092
:10022000D5030000D7030000D9030000DB03000062
:10023000DD030000DF030000E1030000E303000032
:10024000E5030000E7030000E9030000EB03000002
:10025000ED030000EF030000F1030000F3030000D2
:10026000F5030000F7030000F903000000F002F8B6
:1002700000F03BF80AA090E8000C82448344AAF105
:100280000107DA4501D100F030F8AFF2090EBAE803
:100290000F0013F0010F18BFFB1A43F001031847BA
:1002A0007C1800008C180000002300240025002684
:1002B000103A28BF78C1FBD8520728BF30C148BFC9
:1002C0000B607047662901F0DD83002070471FB581
:1002D00001F0D3FB00F0F6FD04000020002101F046
:1002E0003FFBE0601FBD10B510BD00F0EBFE1146F6
:1002F000FFF7EDFF00F0E9F900F009FF03B4FFF7A5
:10030000F2FF03BC00F04AFF3F4880473F480047E8
:10031000FEE7FEE7FEE7FEE7FEE7FEE7FEE7FEE7B5
:10032000FEE7FEE7FEE7FEE7FEE7FEE7FEE7FEE7A5
:10033000FEE7FEE7FEE7FEE7FEE7FEE7FEE7FEE795
:10034000FEE7FEE7FEE7FEE7FEE7FEE7FEE7FEE785
:10035000FEE7FEE7FEE7FEE7FEE7FEE7FEE7FEE775
:10036000FEE7FEE7FEE7FEE7FEE7FEE7FEE7FEE765
:10037000FEE7FEE7FEE7FEE7FEE7FEE7FEE7FEE755
:10038000FEE7FEE7FEE7FEE7FEE7FEE7FEE7FEE745
:10039000FEE7FEE7FEE7FEE7FEE7FEE7FEE7FEE735
:1003A000FEE7FEE7FEE7FEE7FEE7FEE7FEE7FEE725
:1003B000FEE7FEE7FEE7FEE7FEE7FEE7FEE7FEE715
:1003C000FEE7FEE7FEE7FEE7FEE7FEE7FEE7FEE705
:1003D000FEE7FEE7FEE7FEE7FEE7FEE7FEE7FEE7F5
:1003E000FEE7FEE7FEE7FEE7FEE7FEE7FEE7FEE7E5
:1003F000FEE7FEE7FEE7FEE7FEE7000004480549EA
:10040000034A054B704700001D0400006D02000008
:10041000780000207802002078000020FE48006864
:1004200040F47000FC490860704700BFFB4840681A
:1004300010F0010FFAD1F948406800F00E00704743
:100440002DE9F04105460E4617466800F34908605D
:100450000846866003204860FFF7E7FFC4B214B186
:100460002046BDE8F081ED4887600520EB494860F3
:10047000FFF7DBFFC4B200BFE848406810F0400F50
:10048000FAD1E648406800F00E040CB12046E8E7D7
:100490000020E6E710B5072219216820FFF7D0FFFA
:1004A00001226B216820FFF7CBFF00221A21682070
:1004B000FFF7C6FF00221C216820FFF7C1FF0022C2
:1004C0001B216820FFF7BCFF012238216820FFF7BD
:1004D000B7FF10BDD248006840F00100D049086065
:1004E000CF481030006840F00100CD49103108605D
:1004F000CC48006840F00300CA490860CA48006858
:1005000040F01100C8490860C7481038006840F042
:100510000300C54910390860C2482038006840F01F
:100520000200C04920390860C048006B40F44070A8
:10053000BE490863BE480068BD490860BB48406AC0
:1005400040F00800B94948620846806A40F02C0033
:1005500088620846C06A40F07000C8620846006BB6
:1005600040F201310843B14908637047AC48006864
:1005700040F00800AA490860A9481830006840F017
:100580000800A74918310860AA48006840F0030035
:10059000A8490860A748FC38006840F00300A54956
:1005A000FC390860A3481030006840F03300A149CE
:1005B000103108609F481038006840F002009D49E3
:1005C000103908601020954908620720C8607047FC
:1005D00000BF9649896911F0200FFAD1934908604C
:1005E000704700B5024603E01078FFF7F1FF521C98
:1005F00010780028F8D100BD002100BF00E0491CA0
:1006000000EB4002C2EBC012B1EBC20FF7D3704750
:100610002DE9F0410746884614461D46002C02DCB1
:100620000120BDE8F08178007C4908600846C0F8E8
:10063000088003204860FFF7F8FEC6B20EB13046CE
:10064000EFE7012000EB470074490860012C02D15C
:100650000720486002E00B2070494860FFF7E5FE84
:10066000C6B20EB13046DCE76C48806805F8010B75
:10067000601E040007D100BF6848406810F0400FBA
:10068000FAD10020CDE70DE0092064494860FFF76A
:10069000CCFEC6B20EB13046C3E7641E5F48806828
:1006A00005F8010B012CEFDC05205C494860FFF7E1
:1006B000BCFEC6B259488068287000BF57484068E1
:1006C00010F0400FFAD10020ABE72DED088B84B07D
:1006D000FFF74CFF4FF47A70FFF78EFFFFF7DAFE5B
:1006E0004FF47A70FFF788FFFFF7F4FEFAE06B46ED
:1006F0000E223B216820FFF78BFF9DF801009DF83B
:10070000001040EA012004B29DF803009DF8021099
:1007100040EA012005B29DF805009DF8041040EA6A
:10072000012006B29DF809009DF8081040EA01205A
:1007300007B29DF80B009DF80A1040EA01200FFA5D
:1007400080F89DF80D009DF80C1040EA01200FFA8A
:1007500080F900EE104AB8EEC00ADFED370A80EEED
:10076000208A00EE105AB8EEC00ADFED330AC0EE60
:10077000208A00EE106AB8EEC00ADFED2F0A80EE84
:10078000209A00EE107AB8EEC00ADFED2C0AC0EE17
:10079000209A00EE108AB8EEC00ADFED280A80EE3B
:1007A00020AA00EE109AB8EEC00ADFED240AC0EECF
:1007B00020AA19EE900A01F0EFF841EC100BB0EE10
:1007C00040BAF0EE60BA53EC1B2B1DA11F4800F09D
:1007D000ADF81E48FFF705FF1AEE100A01F0DCF82D
:1007E00041EC100BB0EE40BAF0EE60BA53EC1B2BAC
:1007F00017A1164800F09AF81448FFF7F2FE1AEE17
:10080000900A01F0C9F841EC100BB0EE40BAF0EEDE
:1008100060BA53EC1B2B21E088ED00E00030024071
:1008200008E60F40204400402C45004000C0004036
:10083000C8CF00401C750040000080460000034304
:100840004778203D20252E32662009000000002038
:100850004779203D20252E326620090022A1264816
:1008600000F064F82448FFF7BCFE18EE100A01F00F
:1008700093F841EC100BB0EE40BAF0EE60BA53ECD6
:100880001B2B1EA11C4800F051F81B48FFF7A9FEC6
:1008900018EE900A01F080F841EC100BB0EE40BA6F
:1008A000F0EE60BA53EC1B2B18A1134800F03EF891
:1008B0001148FFF796FE19EE100A01F06DF841ECB1
:1008C000100BB0EE40BAF0EE60BA53EC1B2B13A144
:1008D000094800F02BF80848FFF783FE4FF47A70C0
:1008E000FFF78AFE03E70000477A20203D20252EEF
:1008F000326620090000000000000020417820201E
:100900003D20252E3266200900000000417920207C
:100910003D20252E3266200900000000417A20206B
:100920003D20252E3266200D0A0000000FB41CB5B4
:10093000074B06AA7B4469460090059800F0A9FA87
:100940000020694600F0B8FA1CBC5DF814FB0000FA
:10095000810500002DE9F0474FF0000A8946044662
:10096000C0F820A02046E1688847002876D02528D6
:1009700006D0D4E901219047206A401C2062F1E7AB
:10098000E168204600258847C4F81CA006460027D9
:10099000C4F818A02A2E09D0304600F0D9FF38B389
:1009A00004EB8708303EC8F8186019E059F8041BBA
:1009B000204604EB87029161E1688847012F0646D3
:1009C00018D1E069002820DA25F020051DE0D8F8CC
:1009D000180000EB800006EB40003038C8F8180023
:1009E0002046E1688847064600F0B2FF0028EED1B5
:1009F000012F0AD02E2E08D12046E16888477F1C9F
:100A00000646022F45F02005C4DBA069002803DA62
:100A1000404245F00105A061E80701D025F010052E
:100A2000B6B1A6F14100192802D8203645F4006578
:100A30004A463146204625604D46FFF743FC58B1F3
:100A4000012806D0ED1D25F0070000F1080989E70F
:100A500004E005F1040985E730468AE7206ABDE82D
:100A6000F08770477047704770472DE9FF4F0C467D
:100A70001E464FF0FF378BB0D2E90001DDF86080F1
:100A80000A908A46C1F30A5505B93D460021084639
:100A90004FF00000BAF1000F00F4400005DA00EB5F
:100AA00080004FF4400101EA50004FEA9059B9F13B
:100AB000010F00DDB9460A9850EA4A000ED044F60C
:100AC0001050A5F2FF3545432F14B8F1000F1ED08A
:100AD0007542291E1EDDC9F100021CE0B8F1010FAC
:100AE0004FF0000001D0302103E0F24305E0215433
:100AF000401CB042FBDB30460022002121540B9900
:100B0000C1F80880C1E900200FB0BDE8F08FBD1B1F
:100B10006D1CDEE74A4600DA694206A800F05CFA7E
:100B200006AB07CB03AB07C350460A9900F03DFB69
:100B30008DE80700A0F500501F3800900398002DA5
:100B400009DD42F21F014A46084403A903906846A2
:100B500000F09CFD08E0A0F500504A461F3803A9AC
:100B60000390684600F0A6FD8DE807000004000C25
:100B700003D04FF0FF30410800E01046B8F1000FFD
:100B800003D00022009215461FE0751E06D400F027
:100B90009DF902F1300262556D1EF8D5B34601226F
:100BA000084302D000227F1C04E02078302801D1C5
:100BB00000227F1E002A099787D01DE0112D07DA39
:100BC00000F084F9303262556D1C50EA0102F5D113
:100BD00008430FD10021681E05E0235C625C63546A
:100BE000491C2254401E8142F7DBAB46A81B401E25
:100BF000099001E0009848B1002004F80B000B9820
:100C0000099AC0F80880C0E9002B7DE711264FF053
:100C100000085AE72DE9F04F88460446D21D22F01D
:100C2000070191B0D1E90001CDE90A0100F078FE99
:100C300002460B98C00F01D02D2007E020688107E5
:100C400001D52B2002E0202101EAC000032A0990EF
:100C500001D0072A05DB03464146204600F07CF917
:100C60000FE12078800601D5E06900E00620B8F1A8
:100C7000650F814606D0B8F1660F18D0B8F1670F3E
:100C800072D132E00020B9F1110F009001DB112385
:100C900001E009F101030AAA01A90CA8FFF7E5FE8A
:100CA000DDE90C70002609F10105834648E00120CA
:100CB0004B4600904FF000470AAA01A90CA8FFF785
:100CC000D4FEDDE90DB00C995D46002618B909F196
:100CD000010001EB0005B9EB050003D4C0F1FF36BC
:100CE00009F10105A5EB09002BE0B9F1010F01DACB
:100CF0004FF001090020B9F1110F0090484601DDC5
:100D0000112300E003460AAA01A90CA8FFF7ADFED3
:100D1000DDE90C704D4600268346207800070AD492
:100D2000AB4500DA5D4601A8012D04DD411911F83B
:100D3000011C302907D04F4502DA17F1040F04DAFD
:100D40000120824610E06D1EEEE7002F02DCED1B55
:100D50003E4403E0781CA84200DD0546A7EB0600F0
:100D600000F1010A4FF000472078000703D4AA459C
:100D700001DB4FF0FF3A0021B7F1004F0DF14308BE
:100D80008DF8431023D002202B23002F01DA7F425D
:100D90002D234FF00A0C011EA0F1010000DC4FB121
:100DA00097FBFCF10CFB11720F4602F1300208F8C0
:100DB000012DF0E7A8F1010003702188090501D594
:100DC000452100E06521A0F1010800F8011C099807
:100DD0000FA9A1EB080707F1070700B1012000EBFD
:100DE000050101EBEA70A1693844A1EB0000A0F114
:100DF0000100A0612078C00602D42046AFF3008035
:100E0000099830B1D4E901219047206A00F101002E
:100E100020622078C00620D52046AFF300801CE079
:100E2000002E04DBB34502DD01A8805D00E0302028
:100E3000D4E901219047206A761C401CBAF1010ACE
:100E400020620AD100F03EF8C0680168405CD4E935
:100E500001219047206A401C2062281EA5F101054F
:100E6000DEDC07E0D4E9012118F8010B9047206A85
:100E7000401C2062381EA7F10107F3DC2046AFF3C7
:100E80000080022011B040E601694A1C0261087826
:100E9000704700B58FB0CDE90131002105910549BA
:100EA0007944CDE9031011466846FFF753FD0FB0B2
:100EB00000BD0000E5FFFFFF0A6802F8010B0A60B1
:100EC00070470000004870473400002030B5B0F192
:100ED0000A024FEA900E71F100034EEA817EB0EBF8
:100EE0000E0061EB91014FEA101E4EEA017E10EBFD
:100EF0000E0041EB11114FEA102E4EEA016E10EB7D
:100F00000E0041EB11214FEA104E4EEA014E10EB5C
:100F10000E0041EB1141401841F100014FEAD000B1
:100F200040EA41704FEAD10110EB80054FEA81049D
:100F300044EA907444EB01046D1944EB0404521B21
:100F4000A3414FF0000348BF0A3200D530BD401C1A
:100F500041F1000130BD00002DE9F0411F4604467B
:100F600003260168072A01F4006004DB08B116A516
:100F700005E016A503E008B115A500E015A521F0D0
:100F800010002060A069C01EA0610FB1401EA061CA
:100F90002046AFF300804FB1D4E901213846904795
:100FA000206A401C2062C01C206206E0206AFAE72A
:100FB000D4E9012115F8010B9047761EF8D220469E
:100FC000AFF30080BDE8F0814E414E006E616E00CF
:100FD000494E4600696E66002DE9F0478146164687
:100FE0008AB035487844D0E9002380680092CDE982
:100FF0000130314878440C38D0E90223006903926B
:101000004FF03702CDE9043041F69B30014491FBAB
:10101000F2F0A0F1800502FB10141B3C02D56442E3
:10102000012000E00020DFF890A080460027FA446D
:10103000AAF1C60A0DE0E00709D03246684607EB80
:1010400047010AEB810100F035FB8DE807006410D1
:101050007F1C002CEFD1184F7F44B43F17E0E80706
:1010600013D007EB04100DF1180A90E80E00AAE85F
:101070000E00C068F04201D198190890324606A9C6
:1010800003A800F017FB03AB07C36D10641C002D11
:10109000E5D132466946B8F1000F03A802D000F04E
:1010A000F5FA01E000F006FBC9E90001C9F80820E3
:1010B0000AB0BDE8F08700001C0B00000048704734
:1010C000140000207546FFF7F9FFAE46050069469B
:1010D000534620F00700854618B020B5FFF78EF97B
:1010E000BDE820404FF000064FF000074FF0000829
:1010F0004FF0000B21F00701AC46ACE8C009ACE8AA
:10110000C009ACE8C009ACE8C0098D467047044688
:10111000AFF300802046FFF7F1F800004FF0013CEC
:1011200050F8042B51F8043B9A4221D1A2EB0C0356
:10113000934313EACC1317D150F8042B51F8043B16
:101140009A4215D1A2EB0C03934313EACC130BD1B3
:1011500050F8042B51F8043B9A4209D1A2EB0C033E
:10116000934313EACC13DBD04FF00000704700BF6D
:10117000D01A01BAB1FA81F101F0180122FA01F096
:10118000CB40C1F12001DBB2C0B2C01A2CFA01F38E
:10119000D11A914311EAC311E6D1704701491820D1
:1011A000ABBEFEE72600020070475FEA400C08BFB6
:1011B00091F0000F4FEA8C234FEAC12243EA5151CC
:1011C0004FEA1C5018BF00F5F0404FEA300018BF3E
:1011D00041F000415FEA6C5C00F02980BCF1FF3F08
:1011E00008BF40F080407047130C06BF12044FF058
:1011F000100C4FF0000C130E04BF12020CF1080C7F
:10120000130F04BF12010CF1040C930F04BF9200E2
:101210000CF1020CD30F04BF52000CF1010C11466B
:101220004FF00002A0F11F00A0EB0C00704711F07E
:10123000004F08BF704731F000413FF4D5AF0B0CB1
:1012400006BF09044FF0100C4FF0000C0B0E04BF4A
:1012500009020CF1080C0B0F04BF09010CF1040C7E
:101260008B0F04BF89000CF1020CCB0F04BF4900A7
:101270000CF1010CCCF12003A0EB0C0022FA03F3DB
:1012800002FA0CF241EA030100F10100704720F07C
:101290007F4C80EA030023F07F47ACEB070303F5A4
:1012A0007C5300F0004003F1FF032DE980494FEA31
:1012B000154B09B44FEA144325EA0B4E24EA0348C0
:1012C0000FF2042606EB132749083E785FEA320244
:1012D00003FB0667C7F5000707FB06F64FEA54371E
:1012E0004FEAD64606F1020607FB066CCCF1005C1D
:1012F0004FEA1C472CEA074C07FB06F40CFB06F5EB
:1013000004EB15464FEA961634BF00204FF000401C
:101310004FEAD13706FB07FC4FEA1C4C0CFB0BF7DE
:10132000D21B03FB0CF761EB07010CFB0EF7B0EBD4
:10133000074072EB17420CFB08F734BFA2EB0742E1
:10134000B2EB074261EB17414FEA0C444FEA9107B9
:1013500006FB07FC4FEA1C4C0CFB0BF7B0EBC7403D
:1013600072EB573203FB0CF734BFA2EBC742B2EB70
:10137000C74261EB57310CFB0EF7B0EBC70072EBC5
:1013800057720CFB08F734BFA2EBC702B2EBC702DF
:1013900061EB5771039F4FEA816141EA921104EBBF
:1013A000CC044FEAD1374FEA826206FB07FC42EADF
:1013B00090124FEA80604FEA1C4C0CFB0BF7D21BDB
:1013C00003FB0CF761EB07010CFB0EF7B0EB0740DA
:1013D00072EB17420CFB08F734BFA2EB0742B2EBEB
:1013E000074261EB17414FEA8C554FEA910704EB36
:1013F0009C2406FB07FC4FEA1C4C0CFB0BF7B0EBE4
:10140000C74072EB573203FB0CF734BFA2EBC74265
:10141000B2EBC74261EB57310CFB0EF7B0EBC700E4
:1014200072EB57720CFB08F734BFA2EBC702B2EBAA
:10143000C70261EB577115EB4C254FEA816141EA18
:1014400092114FEA82624FEAD13742EA901206FBCC
:1014500007FC44F100044FEA80604FEA1C4C0CFB8F
:101460000BF7D21B03FB0CF761EB07010CFB0EF72C
:10147000B0EB074072EB17420CFB08F734BFA2EB4E
:101480000742B2EB074261EB174115EB1C154FEA1F
:10149000813141EA92414FEA823242EA90424FEA78
:1014A00080304FEA0C7644F1000448EA03434EEAE8
:1014B0000B484FF0000EB2EB080C71EB030724BF92
:1014C000624639464EEB0E0E4FF0000B00185241AB
:1014D00049414BEB0B0BB2EB080C71EB03077BF1B3
:1014E000000B24BF624639464EEB0E0E4FF0000B48
:1014F0000018524149414BEB0B0BB2EB080C71EB5E
:1015000003077BF1000B24BF624639464EEB0E0EFB
:1015100051EA020718BF46F0010616EB0E7655F1A8
:10152000000254F1000103D5BDE88901BDE800883F
:10153000BDE88901BDE80048B619524141EB0101FF
:10154000A3F10103704780807F7E7D7C7B7A797870
:10155000777676757473727171706F6E6E6D6C6C78
:101560006B6A6A696868676666656464636362611A
:101570006160605F5F5E5E5D5D5C5C5B5B5A5A599B
:101580005958585757565655555554545353525207
:101590005251515050504F4F4F4E4E4D4D4D4C4C5F
:1015A0004C4B4B4B4A4A4A494949484848474747A8
:1015B00047464646454545444444444343434342E5
:1015C000424242414141002B26D4770021D01CB534
:1015D0004FEA370703B44FF010004FF010014FF0FF
:1015E00000000FBCBDE810400BF1010BBBF1010F77
:1015F00008BF5FEA170722BF12F1010211F10101D2
:101600004FF0004143F1000300F0004043EA0000C6
:101610007047F9D35708DAE746EA064613F1400F58
:101620004FEA16461FDD13F1200FDFBF16430A46AF
:10163000002120335B42C8D0C3F1200746EA0646AA
:1016400002FA07F74FEA164646EA0706C3F12007F3
:1016500022FA03F201FA07F721FA03F14FF000032F
:1016600042EA0702B1E746EA020646EA06464FEAC0
:10167000164646EA0106BCBF46EA0646360C4FF05F
:1016800000034FF000024FF000019EE72DE9C04833
:10169000934630B491E8380007C831EA400C48BF9F
:1016A00034EA430C03D5FFF7F2FDFFF78CFFF0BCE3
:1016B000BDE800882DE9C048934630B491E8380071
:1016C00007C810F0804F08BF13F0804F03D100F01F
:1016D00005F8FFF778FFF0BCBDE8008820F07F47F1
:1016E00080EA030023F07F4C07EB0C03A3F57C5347
:1016F00000F00040A3F1FE0392F0000F00F0B38071
:1017000095F0000F00F077802DE901494FEA114074
:101710004FEA144621EA004800FB06FC24EA06478B
:1017200008FB06F607FB08F800FB07F718EB06486E
:101730004CEB164C4FEA124B18EB07484FEA154694
:101740004CEB174022EA0B4E0BFB06FC25EA064742
:101750000EFB06F607FB0EFE0BFB07F71EEB064E15
:101760004CEB164C4FF000061EEB074E4CEB174BA4
:1017700018EB0B0840F1000018EB0E0B58EB0008BB
:1017800040F100008F1A4FF000013CBFC943661BB7
:1017900014BFB5EB040C00213CBFC943F61B4FEA54
:1017A00017444EEA8E0E27EA04454FEA1C4704FB15
:1017B00007622CEA074C05FB07F70CFB05F604FB58
:1017C0000CFC16EB074642EB174216EB0C4642EBBD
:1017D0001C421BEB060658EB0202414146EA9E06FC
:1017E00001D5BDE80189B619524141EB0101A3F1D0
:1017F0000103BDE801894FEA14454FEA114724EA85
:10180000054621EA074C05FB07F406FB07F70CFB2E
:1018100006F105FB0CFC11EB074144EB17444FEAC2
:10182000124711EB0C4144EB1C4422EA074C05FB28
:1018300007F206FB07F70CFB06F605FB0CFC16EBA4
:10184000074642EB174216EB0C4642EB1C456A1862
:1018500054F1000148BF7047B619524141EB0101F4
:10186000A3F10103704795F0000F37D04FEA114202
:101870004FEA144721EA024624EA074C02FB07F12B
:1018800006FB07F70CFB06F402FB0CFC14EB074409
:1018900041EB17414FEA154714EB0C4441EB1C4157
:1018A00025EA074C02FB07F506FB07F70CFB06F6DB
:1018B00002FB0CFC16EB074645EB174516EB0C46F6
:1018C00045EB1C42121951F1000148BF7047B6198F
:1018D000524141EB0101A3F1010370474FEA144566
:1018E0004FEA114724EA054621EA074C05FB07F1B8
:1018F00006FB07F70CFB06F24FF0000605FB0CFC9D
:1019000012EB074241EB174112EB0C4251EB1C4129
:1019100048BF7047921841EB0101A3F101037047E2
:1019200003B401984100009850EAC12018BF042078
:101930004A0D18BF40F0010040F2FF72B2EB515F58
:1019400008BF40F00200012808BF052002B0704720
:1019500030380A2801D2012070470020704700006B
:1019600010B500290AD00878002807D00548784427
:10197000FFF7D4FB002801D0002010BD02487844B6
:1019800010BD0000BE010000B60100000808A0F56F
:1019900000114FEA3101704743004FEAD30C4FEA80
:1019A0003C0C43401FBF40070CF1605113F0FE4F49
:1019B00070471CF0006F03D100200CF0004170470D
:1019C0000CF0004343EA507010B540EACC0000F040
:1019D0000EF800BF000000924FEA0001FFF7D6BFEB
:1019E0004FF000414FF00000A1F5002170470EF1CB
:1019F000020E2EF0030E5EF8044B244204D44FEA8C
:101A00004102B2F17F4F11D84FEA4003B3F17F4F4B
:101A10000CD80ED14FEAD07CB2F17F4F0CEB4C0CBE
:101A20000CF1020C08BF4CEBD17C04E04FF0080C29
:101A300001E04FEAD17C0CEB4C0324FA03F404F0F0
:101A40000704B4F1040C06D20EEB840CBDE8104080
:101A50004CF0010C6047DFE80CF0070802024FF081
:101A60000040A0F5800010BD0846420018BFD2F12A
:101A7000807288BF00F0004010BD4FF04070E1EE72
:101A8000100A7047FFF7C6B802400000000000A02F
:101A90000000000005400000000000C80000000039
:101AA0000C4000000000409C0000000019400000B5
:101AB0000020BCBE0000000034400000BFC91B8EE7
:101AC00000000004B5400000504BCFD06607E2CFC5
:101AD000010000006C4100003E8251AADFEEA734F5
:101AE00001000000D9420000DCB5A0E23A301F97A7
:101AF000FFFFFFFFB4450000FD25A0C8E9A3C14FCB
:101B0000FFFFFFFFFF3F000000000080000000001B
:101B1000FF3F00000000008000000000481B0000A4
:101B20000000002078020000A80200001C00000055
:101B300043000000F8FFFFFF0C0000000E00000053
:081B40000F0000002E00000060
:0400000500000309EB
:00000001FF
