:020000040000FA
:1000000060020020F1020000F9020000FB02000083
:10001000FD020000FF0200000103000000000000DC
:1000200000000000000000000000000003030000CA
:1000300005030000000000000703000009030000A2
:100040000B0300000D0300000F030000110300006C
:10005000130300001503000017030000190300003C
:100060001B0300001D0300001F030000210300000C
:1000700023030000250300002703000029030000DC
:100080002B0300002D0300002F03000031030000AC
:10009000330300003503000037030000390300007C
:1000A0003B0300003D0300003F030000410300004C
:1000B000430300004503000047030000490300001C
:1000C0004B0300004D0300004F03000051030000EC
:1000D00053030000550300005703000059030000BC
:1000E0005B0300005D030000000000005F030000F0
:1000F0006103000063030000650300006703000064
:10010000690300006B0300006D0300006F03000033
:1001100000000000000000007103000073030000F5
:100120007503000077030000790300007B030000E3
:100130007D0300007F0300008103000083030000B3
:1001400000000000000000000000000000000000AF
:100150008503000087030000890300008B03000073
:10016000000000000000000000000000000000008F
:10017000000000000000000000000000000000007F
:10018000000000000000000000000000000000006F
:10019000000000000000000000000000000000005F
:1001A000000000000000000000000000000000004F
:1001B0008D0300008F0300009103000093030000F3
:1001C0009503000097030000990300009B030000C3
:1001D0009D0300009F030000A1030000A303000093
:1001E000A5030000A7030000A90300000000000011
:1001F00000000000AB030000AD030000AF030000EF
:10020000B1030000B3030000000000000000000084
:10021000B5030000B7030000B9030000BB030000F2
:10022000BD030000BF030000C1030000C3030000C2
:10023000C5030000C7030000C9030000CB03000092
:10024000CD030000CF030000D1030000D303000062
:10025000D5030000D7030000D9030000DB03000032
:10026000DD030000DF030000E103000000F002F8FE
:1002700000F02EF80AA090E8000C82448344AAF112
:100280000107DA4501D100F023F8AFF2090EBAE810
:100290000F0013F0010F18BFFB1A43F001031847BA
:1002A000FC0500000C0600000023002400250026A9
:1002B000103A28BF78C1FBD8520728BF30C148BFC9
:1002C0000B6070471FB500F0E4FA1FBD10B510BDFC
:1002D00000F0A9FA1146FFF7F5FF00F00DFA00F063
:1002E000C7FA03B4FFF7F2FF03BC00F0CBFA00003B
:1002F0003F4880473F480047FEE7FEE7FEE7FEE74E
:10030000FEE7FEE7FEE7FEE7FEE7FEE7FEE7FEE7C5
:10031000FEE7FEE7FEE7FEE7FEE7FEE7FEE7FEE7B5
:10032000FEE7FEE7FEE7FEE7FEE7FEE7FEE7FEE7A5
:10033000FEE7FEE7FEE7FEE7FEE7FEE7FEE7FEE795
:10034000FEE7FEE7FEE7FEE7FEE7FEE7FEE7FEE785
:10035000FEE7FEE7FEE7FEE7FEE7FEE7FEE7FEE775
:10036000FEE7FEE7FEE7FEE7FEE7FEE7FEE7FEE765
:10037000FEE7FEE7FEE7FEE7FEE7FEE7FEE7FEE755
:10038000FEE7FEE7FEE7FEE7FEE7FEE7FEE7FEE745
:10039000FEE7FEE7FEE7FEE7FEE7FEE7FEE7FEE735
:1003A000FEE7FEE7FEE7FEE7FEE7FEE7FEE7FEE725
:1003B000FEE7FEE7FEE7FEE7FEE7FEE7FEE7FEE715
:1003C000FEE7FEE7FEE7FEE7FEE7FEE7FEE7FEE705
:1003D000FEE7FEE7FEE7FEE7FEE7FEE7FEE7FEE7F5
:1003E000FEE7000004480549034A054B704700003A
:1003F000050400006D020000600000206002002083
:1004000060000020C448006840F47000C2490860E1
:10041000704708B5C148006840F00500BF49086052
:10042000BE48103800680090BC481038006840F0A2
:100430000900BA4910390860084600680090B848B9
:10044000B8490860081D006840F0FF00091D0860F9
:10045000B548006840F00300B3490860B34800683D
:1004600040F01100B1490860B0481038006840F011
:100470000300AE49103908600846006840F00400E7
:100480000860A9482038006840F00400A6492039D7
:100490000860A1F10400006840F004004FF0402122
:1004A000C1F8FC03A248006840F0C000A049086001
:1004B000A048006840F0C0009E4908609E4800685F
:1004C00040F088509C4908609C48006B00F44070E4
:1004D0009A4908639A48006B00F440709849086391
:1004E000984800684FF000009649086096480068F8
:1004F0004FF00000944908609048406A40F00800BE
:100500008E4948620846806A40F02C0088628C4818
:10051000406A40F008008A4948620846806A40F014
:100520002C0088628548C06A40F070008349C86228
:100530008348C06A20F002008149C8620846C06A48
:1005400020F00800C8620846C06A40F01000C86287
:100550000846C06A40F06000C8627848006B40F20C
:10056000013140EA0100754908637548006B40F2AB
:10057000013140EA01007249086308BD002100BF53
:1005800000E0491C8142FCD3704700BF6B49896978
:1005900011F0200FFAD169490860704700B5024692
:1005A00003E01078FFF7F1FF521C10780028F8D113
:1005B00000BD00BF6248806910F0100FFAD160489A
:1005C0000068C0B2704700BF5D49896911F0200F13
:1005D000FAD15B490860704700B5024603E0107825
:1005E000FFF7F1FF521C10780028F8D100BD00B5CC
:1005F00056A0FFF7F1FFFFF7DCFF034605E0FFF72A
:10060000D8FF03461846FFF7C0FF792BF7D152A059
:10061000FFF7E2FFFFF7CDFF034605E0FFF7C9FF55
:1006200003461846FFF7B1FF4B2BF7D14EA0FFF75B
:10063000D3FFFFF7BEFF034605E0FFF7BAFF03460F
:100640001846FFF7A2FF4B2BF7D14FA0FFF7C4FFCF
:10065000FFF7AFFF034605E0FFF7ABFF0346184681
:10066000FFF793FF4B2BF7D14AA0FFF7B5FFFFF73A
:10067000A0FF034605E0FFF79CFF03461846FFF77F
:1006800084FF4B2BF7D147A0FFF7A6FFFFF791FFA1
:10069000034605E0FFF78DFF03461846FFF775FF99
:1006A0004B2BF7D14448FFF769FF44A0FFF794FFB5
:1006B000FFF77FFF034605E0FFF77BFF0346184681
:1006C000FFF763FF4B2BF7D140A0FFF785FFFFF744
:1006D00070FF03460DE0FFF76CFF03461846FFF777
:1006E00054FF3E2B05D13EA0FFF776FF3FA0FFF75A
:1006F00073FF782BEFD100BDFFF78BFE3FA0FFF714
:100700004DFF44A0FFF74AFF4FF47A70FFF736FF22
:10071000FFF76DFF00BFFEE788ED00E018E60F4031
:100720004B434F4C20750040204400402C45004076
:100730001C750040207400402C75004000C0004033
:1007400000E00040C8CF0040C8EF004041542B52A9
:1007500053540D0A0000000041542B43574D4F44A1
:10076000453D330D0A00000041542B43574A415088
:100770003D2266617A69222C223938373635343386
:1007800032220D0A0000000041542B4349465352C7
:100790000D0A000041542B4349504D55583D310D31
:1007A0000A00000041542B434950534552564552CC
:1007B0003D312C38300D0A0000E1F50541542B4342
:1007C00049505354415455530D0A000041542B4392
:1007D000495053454E443D302C360D0A0000000070
:1007E00046415A41494C3A0D0A00000041542B43FE
:1007F0004950434C4F53453D300D0A000D0A57698F
:10080000666920496E697469616C697A6174696F9F
:100810006E0D0A00457865637574650D0A00000069
:10082000704770477047754600F028F8AE460500DF
:100830006946534620F00700854618B020B5FFF7FB
:10084000D1FDBDE820404FF000064FF000074FF00B
:1008500000084FF0000B21F00701AC46ACE8C009DE
:10086000ACE8C009ACE8C009ACE8C0098D467047E7
:100870000446AFF300802046FFF733FD0048704781
:100880000000002001491820ABBEFEE72600020050
:1008900070474FF04070E1EE100A7047AC0800005E
:0C08A0000000002060020000A802000020
:04000005000002F104
:00000001FF
