:020000040000FA
:1000000068020020230300002B0300002D030000E2
:100010002F03000031030000330300000000000044
:100020000000000000000000000000003503000098
:100030003703000000000000390300003B0300000C
:100040003D0300003F0300004103000043030000A4
:100050004503000047030000490300004B03000074
:100060004D0300004F030000510300005303000044
:100070005503000057030000590300005B03000014
:100080005D0300005F0300006103000063030000E4
:100090006503000067030000690300006B030000B4
:1000A0006D0300006F030000710300007303000084
:1000B00075030000770300009B0500007B03000030
:1000C0007D0300007F030000810300008303000024
:1000D0008503000087030000890300008B030000F4
:1000E0008D0300008F03000000000000910300005A
:1000F000930300009503000097030000990300009C
:100100009B0300009D0300009F030000A10300006B
:100110000000000000000000A3030000A503000091
:10012000A7030000A9030000AB030000AD0300001B
:10013000AF030000B1030000B3030000B5030000EB
:1001400000000000000000000000000000000000AF
:10015000B7030000B9030000BB030000BD030000AB
:10016000000000000000000000000000000000008F
:10017000000000000000000000000000000000007F
:10018000000000000000000000000000000000006F
:10019000000000000000000000000000000000005F
:1001A000000000000000000000000000000000004F
:1001B000BF030000C1030000C3030000C50300002B
:1001C000C7030000C9030000CB030000CD030000FB
:1001D000CF030000D1030000D3030000D5030000CB
:1001E000D7030000D9030000DB030000000000007B
:1001F00000000000DD030000DF030000E103000059
:10020000E3030000E5030000000000000000000020
:10021000E7030000E9030000EB030000ED0300002A
:10022000EF030000F1030000F3030000F5030000FA
:10023000F7030000F9030000FB030000FD030000CA
:10024000FF03000001040000030400000504000097
:1002500007040000090400000B0400000D04000066
:100260000F040000110400001304000000F002F865
:1002700000F03CF80AA090E8000C82448344AAF104
:100280000107DA4501D100F031F8AFF2090EBAE802
:100290000F0013F0010F18BFFB1A43F001031847BA
:1002A0002005000040050000103A24BF78C878C13E
:1002B000FAD8520724BF30C830C144BF04680C606C
:1002C000704700000023002400250026103A28BFB4
:1002D00078C1FBD8520728BF30C148BF0B607047B8
:1002E0001FB500F068FA1FBD10B510BD00F02DFA63
:1002F0001146FFF7F5FF00F0ABF900F04BFA03B43D
:10030000FFF7F2FF03BC00F04FFA000072B670472F
:1003100062B670474FF0C00080F31188704730BF5D
:1003200070473F4880473F480047FEE7FEE7FEE74B
:10033000FEE7FEE7FEE7FEE7FEE7FEE7FEE7FEE795
:10034000FEE7FEE7FEE7FEE7FEE7FEE7FEE7FEE785
:10035000FEE7FEE7FEE7FEE7FEE7FEE7FEE7FEE775
:10036000FEE7FEE7FEE7FEE7FEE7FEE7FEE7FEE765
:10037000FEE7FEE7FEE7FEE7FEE7FEE7FEE7FEE755
:10038000FEE7FEE7FEE7FEE7FEE7FEE7FEE7FEE745
:10039000FEE7FEE7FEE7FEE7FEE7FEE7FEE7FEE735
:1003A000FEE7FEE7FEE7FEE7FEE7FEE7FEE7FEE725
:1003B000FEE7FEE7FEE7FEE7FEE7FEE7FEE7FEE715
:1003C000FEE7FEE7FEE7FEE7FEE7FEE7FEE7FEE705
:1003D000FEE7FEE7FEE7FEE7FEE7FEE7FEE7FEE7F5
:1003E000FEE7FEE7FEE7FEE7FEE7FEE7FEE7FEE7E5
:1003F000FEE7FEE7FEE7FEE7FEE7FEE7FEE7FEE7D5
:10040000FEE7FEE7FEE7FEE7FEE7FEE7FEE7FEE7C4
:10041000FEE7FEE704480549034A054B7047000024
:10042000350400006D020000680000206802002012
:100430006800002070470021B54A116004E0B4490B
:100440000968491CB24A1160B14909688142F6D372
:100450007047B048006840F00200AE490860AE48FE
:10046000C0680020AC49C8600846006840F004003D
:1004700008600846406840F00A0048600846806806
:1004800040F00A0088604FF47A508862C8620846DB
:10049000C06840F00100C860704708B59D48001D65
:1004A000006840F020009B49091D08609B480068D7
:1004B0009B49084399490860081D006840F0010005
:1004C000091D08609348001D006800909348001FB4
:1004D000006840F011009149091F08600846006853
:1004E00040F00C0008608F4800688E49086008469C
:1004F000006840F00C0008608A482030006840F036
:100500000C0088492031086084480C30006840F4B1
:10051000EE4082490C31086080481038006840F095
:1005200011007E4910390860FFF7F0FE7D48103059
:10053000006800207B491031086088067A4908600D
:100540007A48006840F400107849086078480068EC
:100550004FF000007649086001F1040000684FF098
:10056000000001F10401086001F1040000684FF08F
:10057000000001F1040108606E48006840F01100BD
:100580006C4908606C48006840F011006A490860D6
:10059000FFF7C0FEFFF7BCFE08BD00B56748006866
:1005A00010F0010F16D10020654908600CE0644886
:1005B0000068594908634FF49670FFF73CFF6048A4
:1005C0000068401C5E4908605D480068B0F57A5FCD
:1005D000EDD31AE05948006810F0100F15D1002033
:1005E000574908600CE0564800684B4948634FF48F
:1005F0009670FFF720FF52480068401C5049086081
:100600004F480068B0F57A5FEDD34FF47A70FFF78A
:1006100012FF43F67F604A49086014E048480068CA
:100620003D4908634FF49670FFF705FF44480068A2
:10063000394948634FF49670FFF7FDFE4048006863
:10064000401E3F4908603E4800680128E6D800BDCA
:10065000FFF723FFFFF7FDFE58E03848006810F071
:10066000010F16D10020364908600CE034480068BC
:10067000294908634FF49670FFF7DDFE30480068A3
:10068000401C2F4908602E480068B0F57A5FEDD312
:100690001AE02A48006810F0100F15D100202849F0
:1006A00008600CE0264800681B4948634FF49670C8
:1006B000FFF7C1FE22480068401C2149086020481D
:1006C0000068B0F57A5FEDD34FF47A70FFF7B3FEB0
:1006D00043F67F601A49086014E0194800680E4923
:1006E00008634FF49670FFF7A6FE154800680A49A4
:1006F00048634FF49670FFF79EFE11480068401E55
:100700000F4908600E4800680128E6D8A5E70000F8
:100710000000002004E60F40001003402055024076
:100720004B434F4C0054024000E100E01CE400E069
:10073000045402401C54024010540240FC53024036
:1007400004000020704770477047754600F028F895
:10075000AE4605006946534620F00700854618B0AE
:1007600020B5FFF757FEBDE820404FF000064FF0E0
:1007700000074FF000084FF0000B21F00701AC46D6
:10078000ACE8C009ACE8C009ACE8C009ACE8C009F5
:100790008D4670470446AFF300802046FFF7AFFD5B
:1007A000004870470800002001491820ABBEFEE752
:1007B0002600020070474FF04070E1EE100A7047CB
:1007C000E00700000000002008000000A802000070
:1007D000E80700000800002060020000C4020000DA
:0807E000000000000000000011
:0400000500000323D1
:00000001FF
