:020000040000FA
:10000000680200200D030000150300001703000024
:10001000190300001B0300001D0300000000000086
:100020000000000000000000000000001F030000AE
:10003000210300000000000023030000250300004E
:1000400027030000290300002B0300002D030000FC
:100050002F030000310300003303000035030000CC
:1000600037030000390300003B0300003D0300009C
:100070003F0300004103000043030000450300006C
:1000800047030000490300004B0300004D0300003C
:100090004F0300005103000053030000550300000C
:1000A00057030000590300005B0300005D030000DC
:1000B0005F030000610300006303000065030000AC
:1000C00067030000690300006B0300006D0300007C
:1000D0006F0300007103000073030000750300004C
:1000E0007703000079030000000000007B0300009C
:1000F0007D0300007F0300008103000083030000F4
:100100008503000087030000890300008B030000C3
:1001100000000000000000008D0300008F030000BD
:100120009103000093030000950300009703000073
:10013000990300009B0300009D0300009F03000043
:1001400000000000000000000000000000000000AF
:10015000A1030000A3030000A5030000A703000003
:10016000000000000000000000000000000000008F
:10017000000000000000000000000000000000007F
:10018000000000000000000000000000000000006F
:10019000000000000000000000000000000000005F
:1001A000000000000000000000000000000000004F
:1001B000A9030000AB030000AD030000AF03000083
:1001C000B1030000B3030000B5030000B703000053
:1001D000B9030000BB030000BD030000BF03000023
:1001E000C1030000C3030000C503000000000000BD
:1001F00000000000C7030000C9030000CB0300009B
:10020000CD030000CF03000000000000000000004C
:10021000D1030000D3030000D5030000D703000082
:10022000D9030000DB030000DD030000DF03000052
:10023000E1030000E3030000E5030000E703000022
:10024000E9030000EB030000ED030000EF030000F2
:10025000F1030000F3030000F5030000F7030000C2
:10026000F9030000FB030000FD03000000F002F8AA
:1002700000F03CF80AA090E8000C82448344AAF104
:100280000107DA4501D100F031F8AFF2090EBAE802
:100290000F0013F0010F18BFFB1A43F001031847BA
:1002A0001004000030040000103A24BF78C878C160
:1002B000FAD8520724BF30C830C144BF04680C606C
:1002C000704700000023002400250026103A28BFB4
:1002D00078C1FBD8520728BF30C148BF0B607047B8
:1002E0001FB500F0E0F91FBD10B510BD00F0A5F975
:1002F0001146FFF7F5FF00F019F900F0C3F903B458
:10030000FFF7F2FF03BC00F0C7F900003F48804749
:100310003F480047FEE7FEE7FEE7FEE7FEE7FEE7B1
:10032000FEE7FEE7FEE7FEE7FEE7FEE7FEE7FEE7A5
:10033000FEE7FEE7FEE7FEE7FEE7FEE7FEE7FEE795
:10034000FEE7FEE7FEE7FEE7FEE7FEE7FEE7FEE785
:10035000FEE7FEE7FEE7FEE7FEE7FEE7FEE7FEE775
:10036000FEE7FEE7FEE7FEE7FEE7FEE7FEE7FEE765
:10037000FEE7FEE7FEE7FEE7FEE7FEE7FEE7FEE755
:10038000FEE7FEE7FEE7FEE7FEE7FEE7FEE7FEE745
:10039000FEE7FEE7FEE7FEE7FEE7FEE7FEE7FEE735
:1003A000FEE7FEE7FEE7FEE7FEE7FEE7FEE7FEE725
:1003B000FEE7FEE7FEE7FEE7FEE7FEE7FEE7FEE715
:1003C000FEE7FEE7FEE7FEE7FEE7FEE7FEE7FEE705
:1003D000FEE7FEE7FEE7FEE7FEE7FEE7FEE7FEE7F5
:1003E000FEE7FEE7FEE7FEE7FEE7FEE7FEE7FEE7E5
:1003F000FEE7FEE7FEE7FEE7FEE7FEE7FEE70000BA
:1004000004480549034A054B7047000021040000D9
:100410006D020000680000206802002068000020D3
:100420007C48006840F470007A49086070470021F9
:1004300000E0491C8142FCD370477748006840F0D7
:10044000200075490860081F006840F00200091F7D
:100450000860724872490860081D006840F0010099
:10046000091D08606F48006840F00C006D49086085
:100470006B480C30006840F4EE4069490C3108606C
:100480006748001F006840F00C006549091F0860BC
:1004900064482038006820F0110062492039086063
:1004A0005F48001F006840F011005D49091F0860A7
:1004B0005B481038006840F0110059491039086055
:1004C0005948C06820F001005749C8600846C06814
:1004D00020F48070C8600846006840F0040008609E
:1004E0000846406840F00A0048600846806840F0CE
:1004F0000A0088600846406820F00400486008460A
:10050000806820F0040088604FF47A508862C862E6
:100510008010086348630846C06840F00100C86066
:100520000846C06840F48070C8607047002400230B
:10053000FFF783FF6CE03D48006C10F0100F1CD1FA
:100540000420384908604FF4E06035490C310860F8
:100550003348001F006840F004003149091F08605B
:10056000002406E0304804634FF49670FFF75FFF05
:10057000641CB4F57A5FF5DB28E02C48406810F085
:10058000010F23D10820274908604FF4E040244997
:100590000C3108602248001F006840F00800204924
:1005A000091F08601C48001F006840F004001A4939
:1005B000091F0860002306E01B4843634FF4967050
:1005C000FFF735FF5B1CB3F57A5FF5DB4FF47A700C
:1005D000FFF72DFF43F67F601549086014E01448CB
:1005E0000068114908634FF49670FFF720FF104828
:1005F00000680D4948634FF49670FFF718FF0C48E8
:100600000068401E0A490860094800680128E6D8C9
:1006100091E7000088ED00E008E60F404B434F4CA7
:100620002055024020540240001003400050024078
:1006300000000020704770477047754600F028F8AA
:10064000AE4605006946534620F00700854618B0BF
:1006500020B5FFF7D5FEBDE820404FF000064FF073
:1006600000074FF000084FF0000B21F00701AC46E7
:10067000ACE8C009ACE8C009ACE8C009ACE8C00906
:100680008D4670470446AFF300802046FFF737FEE3
:10069000004870470400002001491820ABBEFEE767
:1006A0002600020070474FF04070E1EE100A7047DC
:1006B000D00600000000002004000000A802000096
:1006C000D40600000400002064020000C402000000
:0406D0000000000026
:040000050000030DE7
:00000001FF
